{
  "contractName": "Deal",
  "abi": [
    {
      "inputs": [
        {
          "internalType": "string",
          "name": "greeting",
          "type": "string"
        }
      ],
      "stateMutability": "nonpayable",
      "type": "constructor"
    },
    {
      "anonymous": false,
      "inputs": [
        {
          "indexed": false,
          "internalType": "uint256",
          "name": "id",
          "type": "uint256"
        },
        {
          "indexed": false,
          "internalType": "address",
          "name": "bidder",
          "type": "address"
        },
        {
          "indexed": false,
          "internalType": "uint256",
          "name": "price",
          "type": "uint256"
        }
      ],
      "name": "bidded",
      "type": "event"
    },
    {
      "inputs": [],
      "name": "executor",
      "outputs": [
        {
          "internalType": "address payable",
          "name": "",
          "type": "address"
        }
      ],
      "stateMutability": "view",
      "type": "function",
      "constant": true
    },
    {
      "inputs": [],
      "name": "stage",
      "outputs": [
        {
          "internalType": "enum Deal.Stage",
          "name": "",
          "type": "uint8"
        }
      ],
      "stateMutability": "view",
      "type": "function",
      "constant": true
    },
    {
      "inputs": [],
      "name": "start",
      "outputs": [],
      "stateMutability": "nonpayable",
      "type": "function"
    },
    {
      "inputs": [],
      "name": "increaseFunds",
      "outputs": [],
      "stateMutability": "payable",
      "type": "function",
      "payable": true
    },
    {
      "inputs": [
        {
          "internalType": "uint8",
          "name": "number",
          "type": "uint8"
        },
        {
          "internalType": "uint256",
          "name": "amount",
          "type": "uint256"
        }
      ],
      "name": "bet",
      "outputs": [],
      "stateMutability": "nonpayable",
      "type": "function"
    },
    {
      "inputs": [],
      "name": "spin",
      "outputs": [
        {
          "internalType": "uint256",
          "name": "",
          "type": "uint256"
        }
      ],
      "stateMutability": "nonpayable",
      "type": "function"
    },
    {
      "inputs": [],
      "name": "widthdraw",
      "outputs": [],
      "stateMutability": "nonpayable",
      "type": "function"
    },
    {
      "inputs": [],
      "name": "getFunds",
      "outputs": [
        {
          "internalType": "uint256",
          "name": "",
          "type": "uint256"
        }
      ],
      "stateMutability": "view",
      "type": "function",
      "constant": true
    },
    {
      "inputs": [],
      "name": "bankFunds",
      "outputs": [
        {
          "internalType": "uint256",
          "name": "",
          "type": "uint256"
        }
      ],
      "stateMutability": "view",
      "type": "function",
      "constant": true
    },
    {
      "inputs": [],
      "name": "playersSize",
      "outputs": [
        {
          "internalType": "uint256",
          "name": "",
          "type": "uint256"
        }
      ],
      "stateMutability": "view",
      "type": "function",
      "constant": true
    },
    {
      "inputs": [],
      "name": "changeStateBet",
      "outputs": [],
      "stateMutability": "nonpayable",
      "type": "function"
    }
  ],
  "bytecode": "0x608060405260008060006101000a81548160ff021916908360038111156200002c576200002b62000238565b5b0217905550604051806101600160405280600260ff168152602001600360ff168152602001600460ff168152602001600560ff168152602001600660ff168152602001600760ff168152602001600860ff168152602001600960ff168152602001600a60ff168152602001600b60ff168152602001600c60ff16815250600790600b620000bb9291906200016b565b50348015620000c957600080fd5b5060405162001c3d38038062001c3d8339818101604052810190620000ef9190620003fa565b33600960006101000a81548173ffffffffffffffffffffffffffffffffffffffff021916908373ffffffffffffffffffffffffffffffffffffffff16021790555060016000806101000a81548160ff0219169083600381111562000158576200015762000238565b5b021790555042600881905550506200044b565b82805482825590600052602060002090601f01602090048101928215620002065791602002820160005b83821115620001d557835183826101000a81548160ff021916908360ff160217905550926020019260010160208160000104928301926001030262000195565b8015620002045782816101000a81549060ff0219169055600101602081600001049283019260010302620001d5565b505b50905062000215919062000219565b5090565b5b80821115620002345760008160009055506001016200021a565b5090565b7f4e487b7100000000000000000000000000000000000000000000000000000000600052602160045260246000fd5b6000604051905090565b600080fd5b600080fd5b600080fd5b600080fd5b6000601f19601f8301169050919050565b7f4e487b7100000000000000000000000000000000000000000000000000000000600052604160045260246000fd5b620002d08262000285565b810181811067ffffffffffffffff82111715620002f257620002f162000296565b5b80604052505050565b60006200030762000267565b9050620003158282620002c5565b919050565b600067ffffffffffffffff82111562000338576200033762000296565b5b620003438262000285565b9050602081019050919050565b60005b838110156200037057808201518184015260208101905062000353565b60008484015250505050565b6000620003936200038d846200031a565b620002fb565b905082815260208101848484011115620003b257620003b162000280565b5b620003bf84828562000350565b509392505050565b600082601f830112620003df57620003de6200027b565b5b8151620003f18482602086016200037c565b91505092915050565b60006020828403121562000413576200041262000271565b5b600082015167ffffffffffffffff81111562000434576200043362000276565b5b6200044284828501620003c7565b91505092915050565b6117e2806200045b6000396000f3fe60806040526004361061009c5760003560e01c8063be6f248011610064578063be6f24801461014e578063be9a655514610179578063c040e6b814610190578063c34c08e5146101bb578063ddb57092146101e6578063f0acd7d5146101f05761009c565b806325387774146100a15780634d9b3735146100b857806352b50a2a146100e357806360585394146100fa5780637c69538414610125575b600080fd5b3480156100ad57600080fd5b506100b661021b565b005b3480156100c457600080fd5b506100cd6102d7565b6040516100da9190610ff4565b60405180910390f35b3480156100ef57600080fd5b506100f861031e565b005b34801561010657600080fd5b5061010f61056c565b60405161011c9190610ff4565b60405180910390f35b34801561013157600080fd5b5061014c60048036038101906101479190611079565b610574565b005b34801561015a57600080fd5b506101636108e0565b6040516101709190610ff4565b60405180910390f35b34801561018557600080fd5b5061018e6108ed565b005b34801561019c57600080fd5b506101a5610a4d565b6040516101b29190611130565b60405180910390f35b3480156101c757600080fd5b506101d0610a5e565b6040516101dd919061118c565b60405180910390f35b6101ee610a84565b005b3480156101fc57600080fd5b50610205610b1f565b6040516102129190610ff4565b60405180910390f35b600960009054906101000a900473ffffffffffffffffffffffffffffffffffffffff1673ffffffffffffffffffffffffffffffffffffffff163373ffffffffffffffffffffffffffffffffffffffff16146102ab576040517f08c379a00000000000000000000000000000000000000000000000000000000081526004016102a29061122a565b60405180910390fd5b60026000806101000a81548160ff021916908360038111156102d0576102cf6110b9565b5b0217905550565b6000600160003373ffffffffffffffffffffffffffffffffffffffff1673ffffffffffffffffffffffffffffffffffffffff16815260200190815260200160002054905090565b600160003373ffffffffffffffffffffffffffffffffffffffff1673ffffffffffffffffffffffffffffffffffffffff168152602001908152602001600020544710156103a0576040517f08c379a000000000000000000000000000000000000000000000000000000000815260040161039790611296565b60405180910390fd5b6000600160003373ffffffffffffffffffffffffffffffffffffffff1673ffffffffffffffffffffffffffffffffffffffff1681526020019081526020016000205403610422576040517f08c379a000000000000000000000000000000000000000000000000000000000815260040161041990611302565b60405180910390fd5b6000600160003373ffffffffffffffffffffffffffffffffffffffff1673ffffffffffffffffffffffffffffffffffffffff16815260200190815260200160002054905060003373ffffffffffffffffffffffffffffffffffffffff168260405161048c90611353565b60006040518083038185875af1925050503d80600081146104c9576040519150601f19603f3d011682016040523d82523d6000602084013e6104ce565b606091505b5050905081600160003373ffffffffffffffffffffffffffffffffffffffff1673ffffffffffffffffffffffffffffffffffffffff16815260200190815260200160002060008282546105219190611397565b9250508190555080610568576040517f08c379a000000000000000000000000000000000000000000000000000000000815260040161055f90611417565b60405180910390fd5b5050565b600047905090565b6002806003811115610589576105886110b9565b5b60008054906101000a900460ff1660038111156105a9576105a86110b9565b5b146105b357600080fd5b600360003373ffffffffffffffffffffffffffffffffffffffff1673ffffffffffffffffffffffffffffffffffffffff16815260200190815260200160002060009054906101000a900460ff1661063f576040517f08c379a000000000000000000000000000000000000000000000000000000000815260040161063690611483565b60405180910390fd5b81600160003373ffffffffffffffffffffffffffffffffffffffff1673ffffffffffffffffffffffffffffffffffffffff1681526020019081526020016000205410156106c1576040517f08c379a00000000000000000000000000000000000000000000000000000000081526004016106b8906114ef565b60405180910390fd5b60018360ff161180156106d75750600d8360ff16105b610716576040517f08c379a000000000000000000000000000000000000000000000000000000000815260040161070d9061155b565b60405180910390fd5b6000600460003373ffffffffffffffffffffffffffffffffffffffff1673ffffffffffffffffffffffffffffffffffffffff1681526020019081526020016000205414610798576040517f08c379a000000000000000000000000000000000000000000000000000000000815260040161078f906115c7565b60405180910390fd5b81600460003373ffffffffffffffffffffffffffffffffffffffff1673ffffffffffffffffffffffffffffffffffffffff1681526020019081526020016000208190555082600260003373ffffffffffffffffffffffffffffffffffffffff1673ffffffffffffffffffffffffffffffffffffffff16815260200190815260200160002060006101000a81548160ff021916908360ff16021790555081600160003373ffffffffffffffffffffffffffffffffffffffff1673ffffffffffffffffffffffffffffffffffffffff16815260200190815260200160002060008282546108839190611397565b925050819055506006600081548092919061089d906115e7565b9190505550600580549050600654036108db5760036000806101000a81548160ff021916908360038111156108d5576108d46110b9565b5b02179055505b505050565b6000600580549050905090565b6001806003811115610902576109016110b9565b5b60008054906101000a900460ff166003811115610922576109216110b9565b5b1461092c57600080fd5b60011515600360003373ffffffffffffffffffffffffffffffffffffffff1673ffffffffffffffffffffffffffffffffffffffff16815260200190815260200160002060009054906101000a900460ff16151514610a40576001600360003373ffffffffffffffffffffffffffffffffffffffff1673ffffffffffffffffffffffffffffffffffffffff16815260200190815260200160002060006101000a81548160ff0219169083151502179055506005339080600181540180825580915050600190039060005260206000200160009091909190916101000a81548173ffffffffffffffffffffffffffffffffffffffff021916908373ffffffffffffffffffffffffffffffffffffffff1602179055505b6001600580549050505050565b60008054906101000a900460ff1681565b600960009054906101000a900473ffffffffffffffffffffffffffffffffffffffff1681565b60003411610ac7576040517f08c379a0000000000000000000000000000000000000000000000000000000008152600401610abe9061167b565b60405180910390fd5b34600160003373ffffffffffffffffffffffffffffffffffffffff1673ffffffffffffffffffffffffffffffffffffffff1681526020019081526020016000206000828254610b16919061169b565b92505081905550565b60006003806003811115610b3657610b356110b9565b5b60008054906101000a900460ff166003811115610b5657610b556110b9565b5b14610b6057600080fd5b600960009054906101000a900473ffffffffffffffffffffffffffffffffffffffff1673ffffffffffffffffffffffffffffffffffffffff163373ffffffffffffffffffffffffffffffffffffffff1614610bf0576040517f08c379a0000000000000000000000000000000000000000000000000000000008152600401610be79061171b565b60405180910390fd5b606060006005905060005b600580549050811015610ee157600060058281548110610c1e57610c1d61173b565b5b9060005260206000200160009054906101000a900473ffffffffffffffffffffffffffffffffffffffff1690506000600460008373ffffffffffffffffffffffffffffffffffffffff1673ffffffffffffffffffffffffffffffffffffffff168152602001908152602001600020541115610e755782600260008373ffffffffffffffffffffffffffffffffffffffff1673ffffffffffffffffffffffffffffffffffffffff16815260200190815260200160002060009054906101000a900460ff1660ff1603610dd6576002600460008373ffffffffffffffffffffffffffffffffffffffff1673ffffffffffffffffffffffffffffffffffffffff1681526020019081526020016000206000828254610d39919061176a565b92505081905550600460008273ffffffffffffffffffffffffffffffffffffffff1673ffffffffffffffffffffffffffffffffffffffff16815260200190815260200160002054600160008373ffffffffffffffffffffffffffffffffffffffff1673ffffffffffffffffffffffffffffffffffffffff1681526020019081526020016000206000828254610dce919061169b565b925050819055505b6000600260008373ffffffffffffffffffffffffffffffffffffffff1673ffffffffffffffffffffffffffffffffffffffff16815260200190815260200160002060006101000a81548160ff021916908360ff1602179055506000600460008373ffffffffffffffffffffffffffffffffffffffff1673ffffffffffffffffffffffffffffffffffffffff168152602001908152602001600020819055505b6000600360008373ffffffffffffffffffffffffffffffffffffffff1673ffffffffffffffffffffffffffffffffffffffff16815260200190815260200160002060006101000a81548160ff021916908315150217905550508080610ed9906115e7565b915050610bfb565b508160059080519060200190610ef8929190610f34565b5060016000806101000a81548160ff02191690836003811115610f1e57610f1d6110b9565b5b0217905550600060068190555080935050505090565b828054828255906000526020600020908101928215610fad579160200282015b82811115610fac5782518260006101000a81548173ffffffffffffffffffffffffffffffffffffffff021916908373ffffffffffffffffffffffffffffffffffffffff16021790555091602001919060010190610f54565b5b509050610fba9190610fbe565b5090565b5b80821115610fd7576000816000905550600101610fbf565b5090565b6000819050919050565b610fee81610fdb565b82525050565b60006020820190506110096000830184610fe5565b92915050565b600080fd5b600060ff82169050919050565b61102a81611014565b811461103557600080fd5b50565b60008135905061104781611021565b92915050565b61105681610fdb565b811461106157600080fd5b50565b6000813590506110738161104d565b92915050565b600080604083850312156110905761108f61100f565b5b600061109e85828601611038565b92505060206110af85828601611064565b9150509250929050565b7f4e487b7100000000000000000000000000000000000000000000000000000000600052602160045260246000fd5b600481106110f9576110f86110b9565b5b50565b600081905061110a826110e8565b919050565b600061111a826110fc565b9050919050565b61112a8161110f565b82525050565b60006020820190506111456000830184611121565b92915050565b600073ffffffffffffffffffffffffffffffffffffffff82169050919050565b60006111768261114b565b9050919050565b6111868161116b565b82525050565b60006020820190506111a1600083018461117d565b92915050565b600082825260208201905092915050565b7f4f6e6c7920546865204578656375746f722043616e204368616e67652074686560008201527f2042657400000000000000000000000000000000000000000000000000000000602082015250565b60006112146024836111a7565b915061121f826111b8565b604082019050919050565b6000602082019050818103600083015261124381611207565b9050919050565b7f4e6f7420656e6f7567682066756e647320696e207468652062616e6b00000000600082015250565b6000611280601c836111a7565b915061128b8261124a565b602082019050919050565b600060208201905081810360008301526112af81611273565b9050919050565b7f596f752048617665204e6f7468696e6720746f20576974686472617700000000600082015250565b60006112ec601c836111a7565b91506112f7826112b6565b602082019050919050565b6000602082019050818103600083015261131b816112df565b9050919050565b600081905092915050565b50565b600061133d600083611322565b91506113488261132d565b600082019050919050565b600061135e82611330565b9150819050919050565b7f4e487b7100000000000000000000000000000000000000000000000000000000600052601160045260246000fd5b60006113a282610fdb565b91506113ad83610fdb565b92508282039050818111156113c5576113c4611368565b5b92915050565b7f455448207472616e73666572206661696c656400000000000000000000000000600082015250565b60006114016013836111a7565b915061140c826113cb565b602082019050919050565b60006020820190508181036000830152611430816113f4565b9050919050565b7f596f7520417265204e6f7420417070726f766564000000000000000000000000600082015250565b600061146d6014836111a7565b915061147882611437565b602082019050919050565b6000602082019050818103600083015261149c81611460565b9050919050565b7f4e6f7420656e6f7567682046756e647300000000000000000000000000000000600082015250565b60006114d96010836111a7565b91506114e4826114a3565b602082019050919050565b60006020820190508181036000830152611508816114cc565b9050919050565b7f43686f6f7365204265747765656e205b322d31325d0000000000000000000000600082015250565b60006115456015836111a7565b91506115508261150f565b602082019050919050565b6000602082019050818103600083015261157481611538565b9050919050565b7f596f75204861766520416c726561647920426574746564000000000000000000600082015250565b60006115b16017836111a7565b91506115bc8261157b565b602082019050919050565b600060208201905081810360008301526115e0816115a4565b9050919050565b60006115f282610fdb565b91507fffffffffffffffffffffffffffffffffffffffffffffffffffffffffffffffff820361162457611623611368565b5b600182019050919050565b7f4d7573742073656e642045544800000000000000000000000000000000000000600082015250565b6000611665600d836111a7565b91506116708261162f565b602082019050919050565b6000602082019050818103600083015261169481611658565b9050919050565b60006116a682610fdb565b91506116b183610fdb565b92508282019050808211156116c9576116c8611368565b5b92915050565b7f4f6e6c79204578656375746f722043616e205374617274205468652047616d65600082015250565b60006117056020836111a7565b9150611710826116cf565b602082019050919050565b60006020820190508181036000830152611734816116f8565b9050919050565b7f4e487b7100000000000000000000000000000000000000000000000000000000600052603260045260246000fd5b600061177582610fdb565b915061178083610fdb565b925082820261178e81610fdb565b915082820484148315176117a5576117a4611368565b5b509291505056fea26469706673582212209aa3e6c87071f7badb5783a7c3bc0ba630cf270582ec87c651c93363b127785d64736f6c63430008110033",
  "immutableReferences": {},
  "source": "// SPDX-License-Identifier: MIT\n\npragma solidity >=0.4.22 <0.9.0;\n\ncontract Deal {\n\n    //STAGES\n    enum Stage {Init, SetUp, Bet, Play}\n\n    Stage public stage = Stage.Init;\n\n    //EVENTS\n    event bidded(uint id, address bidder, uint price);\n\n    //Storage variables\n    mapping(address => uint256) registeredFunds;\n    mapping(address => uint8) chosenNumber;\n    mapping(address => bool) approvedPlayer;\n    mapping(address => uint256) bets;\n    address[] players;\n    uint256 c;\n    uint8[] endings = [2, 3, 4, 5, 6, 7, 8 , 9, 10, 11, 12];\n\n    //MODIFIERS\n    modifier validStage(Stage reqStage)\n    { \n        require(stage == reqStage);\n        _;\n    }\n\n    modifier isExecutor()\n    { \n        require(msg.sender == executor, \"Only The Executor Can Change the Bet\");\n        _;\n    }\n\n    uint startTime;\n    address payable public executor;\n\n    constructor(string memory greeting) {\n        executor = payable(msg.sender);\n        stage = Stage.SetUp;\n        startTime = block.timestamp;\n    }\n\n    function start() public validStage(Stage.SetUp){\n        if (approvedPlayer[msg.sender] != true) {\n            approvedPlayer[msg.sender] = true;\n            players.push(msg.sender);\n        }\n        if(players.length > 1) {\n            //stage = Stage.Bet;\n        }\n    }\n\n    function increaseFunds() public payable {\n        require(msg.value > 0, \"Must send ETH\");\n        registeredFunds[msg.sender] += msg.value;\n    }\n\n    function bet(uint8 number, uint256 amount) public validStage(Stage.Bet){\n        require(approvedPlayer[msg.sender], \"You Are Not Approved\");\n        require(registeredFunds[msg.sender] >= amount, \"Not enough Funds\");\n        require(number > 1 && number < 13, \"Choose Between [2-12]\");\n        require(bets[msg.sender] == 0, \"You Have Already Betted\");\n        bets[msg.sender] = amount;\n        chosenNumber[msg.sender] = number;\n        registeredFunds[msg.sender] -= amount;\n        c++;\n        if(c == players.length) stage = Stage.Play;\n    }\n\n    function spin() public validStage(Stage.Play) returns(uint256){\n        require(msg.sender == executor, \"Only Executor Can Start The Game\");\n        address[] memory newArray;\n        uint256 number = 5;\n        for(uint256 i = 0; i < players.length; i++) {\n            address playerAddress = players[i];\n            if(bets[playerAddress] > 0) {\n                 if(chosenNumber[playerAddress] == number) {\n                    bets[playerAddress]*=2;\n                    registeredFunds[playerAddress] += bets[playerAddress];\n                 }\n                chosenNumber[playerAddress] = 0;\n                bets[playerAddress] = 0;\n            }\n            approvedPlayer[playerAddress] = false;\n        }\n        players = newArray;\n        stage = Stage.SetUp;\n        c = 0;\n        return number;\n    }\n\n    function widthdraw() public {\n        require(address(this).balance >= registeredFunds[msg.sender], \"Not enough funds in the bank\");\n        require(registeredFunds[msg.sender] != 0, \"You Have Nothing to Withdraw\");\n        uint256 fund = registeredFunds[msg.sender];\n        //address(this).call{value: fund}(\"\"); \n\n        (bool wasSuccessful, ) = msg.sender.call{value: fund}(\"\");\n        registeredFunds[msg.sender] -= fund;\n        require(wasSuccessful, \"ETH transfer failed\");\n    }\n\n    function getFunds() public view returns(uint256) {\n        return registeredFunds[msg.sender];\n    }\n\n    function bankFunds() public view returns(uint256) {\n        return address(this).balance;\n    }\n\n    function playersSize() public view returns(uint) {\n        return players.length;\n    }\n\n    function randomNumber() private view returns(uint256) {\n        uint256 number = 2 + uint(keccak256(abi.encodePacked(block.timestamp, block.difficulty, msg.sender))) % 11;\n        return number;\n    }\n    function changeStateBet() public isExecutor(){\n        stage = Stage.Bet;\n    }\n}\n",
  "sourcePath": "/home/hubertas/Desktop/smart contract xD/smart-contract/contracts/Deal.sol",
  "compiler": {
    "name": "solc",
    "version": "0.8.17+commit.8df45f5f.Emscripten.clang"
  },
  "schemaVersion": "3.4.11",
  "updatedAt": "2023-01-05T00:58:51.381Z",
  "networkType": "ethereum",
  "devdoc": {
    "kind": "dev",
    "methods": {},
    "version": 1
  },
  "userdoc": {
    "kind": "user",
    "methods": {},
    "version": 1
  }
}