{
  "contractName": "Deal",
  "abi": [
    {
      "inputs": [
        {
          "internalType": "address",
          "name": "buyer",
          "type": "address"
        }
      ],
      "stateMutability": "nonpayable",
      "type": "constructor"
    },
    {
      "anonymous": false,
      "inputs": [
        {
          "indexed": false,
          "internalType": "address",
          "name": "buyerAddr",
          "type": "address"
        },
        {
          "indexed": false,
          "internalType": "string",
          "name": "product",
          "type": "string"
        },
        {
          "indexed": false,
          "internalType": "uint256",
          "name": "quantity",
          "type": "uint256"
        },
        {
          "indexed": false,
          "internalType": "uint256",
          "name": "orderNumber",
          "type": "uint256"
        }
      ],
      "name": "OnOrderPlaced",
      "type": "event"
    },
    {
      "inputs": [],
      "name": "buyerAddr",
      "outputs": [
        {
          "internalType": "address",
          "name": "",
          "type": "address"
        }
      ],
      "stateMutability": "view",
      "type": "function",
      "constant": true
    },
    {
      "inputs": [],
      "name": "orderCount",
      "outputs": [
        {
          "internalType": "uint256",
          "name": "",
          "type": "uint256"
        }
      ],
      "stateMutability": "view",
      "type": "function",
      "constant": true
    },
    {
      "inputs": [
        {
          "internalType": "uint256",
          "name": "",
          "type": "uint256"
        }
      ],
      "name": "orders",
      "outputs": [
        {
          "components": [
            {
              "internalType": "string",
              "name": "name",
              "type": "string"
            },
            {
              "internalType": "uint256",
              "name": "quantity",
              "type": "uint256"
            },
            {
              "internalType": "uint256",
              "name": "price",
              "type": "uint256"
            }
          ],
          "internalType": "struct Deal.Product",
          "name": "product",
          "type": "tuple"
        },
        {
          "components": [
            {
              "internalType": "address payable",
              "name": "courierAddr",
              "type": "address"
            },
            {
              "internalType": "uint256",
              "name": "price",
              "type": "uint256"
            },
            {
              "internalType": "uint256",
              "name": "date",
              "type": "uint256"
            }
          ],
          "internalType": "struct Deal.Shipment",
          "name": "shipment",
          "type": "tuple"
        },
        {
          "internalType": "uint256",
          "name": "total",
          "type": "uint256"
        },
        {
          "internalType": "bool",
          "name": "initialized",
          "type": "bool"
        }
      ],
      "stateMutability": "view",
      "type": "function",
      "constant": true
    },
    {
      "inputs": [],
      "name": "sellerAddr",
      "outputs": [
        {
          "internalType": "address payable",
          "name": "",
          "type": "address"
        }
      ],
      "stateMutability": "view",
      "type": "function",
      "constant": true
    },
    {
      "inputs": [
        {
          "internalType": "string",
          "name": "product",
          "type": "string"
        },
        {
          "internalType": "uint256",
          "name": "quantity",
          "type": "uint256"
        },
        {
          "internalType": "address",
          "name": "courierAddr",
          "type": "address"
        }
      ],
      "name": "placeOrder",
      "outputs": [],
      "stateMutability": "payable",
      "type": "function",
      "payable": true
    },
    {
      "inputs": [
        {
          "internalType": "uint256",
          "name": "number",
          "type": "uint256"
        }
      ],
      "name": "getOrder",
      "outputs": [
        {
          "internalType": "address",
          "name": "buyer",
          "type": "address"
        },
        {
          "internalType": "string",
          "name": "product",
          "type": "string"
        },
        {
          "internalType": "uint256",
          "name": "quantity",
          "type": "uint256"
        },
        {
          "internalType": "uint256",
          "name": "total",
          "type": "uint256"
        },
        {
          "internalType": "uint256",
          "name": "date",
          "type": "uint256"
        }
      ],
      "stateMutability": "view",
      "type": "function",
      "constant": true
    }
  ],
  "bytecode": "0x60806040523480156200001157600080fd5b50604051620011c0380380620011c0833981810160405281019062000037919062000131565b33600160006101000a81548173ffffffffffffffffffffffffffffffffffffffff021916908373ffffffffffffffffffffffffffffffffffffffff160217905550806000806101000a81548173ffffffffffffffffffffffffffffffffffffffff021916908373ffffffffffffffffffffffffffffffffffffffff16021790555060006003819055505062000163565b600080fd5b600073ffffffffffffffffffffffffffffffffffffffff82169050919050565b6000620000f982620000cc565b9050919050565b6200010b81620000ec565b81146200011757600080fd5b50565b6000815190506200012b8162000100565b92915050565b6000602082840312156200014a5762000149620000c7565b5b60006200015a848285016200011a565b91505092915050565b61104d80620001736000396000f3fe6080604052600436106100555760003560e01c806303124ded1461005a5780632453ffa814610076578063a85c38ef146100a1578063a877f215146100e1578063b3f4cc131461010c578063d09ef24114610137575b600080fd5b610074600480360381019061006f9190610817565b610178565b005b34801561008257600080fd5b5061008b610406565b604051610098919061089a565b60405180910390f35b3480156100ad57600080fd5b506100c860048036038101906100c391906108b5565b61040c565b6040516100d89493929190610a4f565b60405180910390f35b3480156100ed57600080fd5b506100f661056d565b6040516101039190610aaa565b60405180910390f35b34801561011857600080fd5b50610121610591565b60405161012e9190610ad4565b60405180910390f35b34801561014357600080fd5b5061015e600480360381019061015991906108b5565b6105b7565b60405161016f959493929190610b39565b60405180910390f35b3373ffffffffffffffffffffffffffffffffffffffff16600160009054906101000a900473ffffffffffffffffffffffffffffffffffffffff1673ffffffffffffffffffffffffffffffffffffffff16146101d257600080fd5b6000600583600a6101e39190610bc2565b6101ed9190610c04565b90506040518060800160405280604051806060016040528088888080601f016020809104026020016040519081016040528093929190818152602001838380828437600081840152601f19601f820116905080830192505050505050508152602001868152602001600a815250815260200160405180606001604052808573ffffffffffffffffffffffffffffffffffffffff168152602001600581526020014281525081526020018281526020016001151581525060026000600354815260200190815260200160002060008201518160000160008201518160000190816102d69190610e73565b506020820151816001015560408201518160020155505060208201518160030160008201518160000160006101000a81548173ffffffffffffffffffffffffffffffffffffffff021916908373ffffffffffffffffffffffffffffffffffffffff160217905550602082015181600101556040820151816002015550506040820151816006015560608201518160070160006101000a81548160ff021916908315150217905550905050600060035490506003600081548092919061039a90610f45565b91905055507fa88698314ef443be76a8d3cc3d3e7a00cb31ba25699e6a41d0354975612f7b7860008054906101000a900473ffffffffffffffffffffffffffffffffffffffff16878787856040516103f6959493929190610fc9565b60405180910390a1505050505050565b60035481565b60026020528060005260406000206000915090508060000160405180606001604052908160008201805461043f90610c96565b80601f016020809104026020016040519081016040528092919081815260200182805461046b90610c96565b80156104b85780601f1061048d576101008083540402835291602001916104b8565b820191906000526020600020905b81548152906001019060200180831161049b57829003601f168201915b505050505081526020016001820154815260200160028201548152505090806003016040518060600160405290816000820160009054906101000a900473ffffffffffffffffffffffffffffffffffffffff1673ffffffffffffffffffffffffffffffffffffffff1673ffffffffffffffffffffffffffffffffffffffff16815260200160018201548152602001600282015481525050908060060154908060070160009054906101000a900460ff16905084565b60008054906101000a900473ffffffffffffffffffffffffffffffffffffffff1681565b600160009054906101000a900473ffffffffffffffffffffffffffffffffffffffff1681565b6000606060008060006002600087815260200190815260200160002060070160009054906101000a900460ff166105ed57600080fd5b60008054906101000a900473ffffffffffffffffffffffffffffffffffffffff16600260008881526020019081526020016000206000016000016002600089815260200190815260200160002060000160010154600260008a815260200190815260200160002060000160020154600260008b81526020019081526020016000206003016002015483805461068190610c96565b80601f01602080910402602001604051908101604052809291908181526020018280546106ad90610c96565b80156106fa5780601f106106cf576101008083540402835291602001916106fa565b820191906000526020600020905b8154815290600101906020018083116106dd57829003601f168201915b505050505093509450945094509450945091939590929450565b600080fd5b600080fd5b600080fd5b600080fd5b600080fd5b60008083601f8401126107435761074261071e565b5b8235905067ffffffffffffffff8111156107605761075f610723565b5b60208301915083600182028301111561077c5761077b610728565b5b9250929050565b6000819050919050565b61079681610783565b81146107a157600080fd5b50565b6000813590506107b38161078d565b92915050565b600073ffffffffffffffffffffffffffffffffffffffff82169050919050565b60006107e4826107b9565b9050919050565b6107f4816107d9565b81146107ff57600080fd5b50565b600081359050610811816107eb565b92915050565b6000806000806060858703121561083157610830610714565b5b600085013567ffffffffffffffff81111561084f5761084e610719565b5b61085b8782880161072d565b9450945050602061086e878288016107a4565b925050604061087f87828801610802565b91505092959194509250565b61089481610783565b82525050565b60006020820190506108af600083018461088b565b92915050565b6000602082840312156108cb576108ca610714565b5b60006108d9848285016107a4565b91505092915050565b600081519050919050565b600082825260208201905092915050565b60005b8381101561091c578082015181840152602081019050610901565b60008484015250505050565b6000601f19601f8301169050919050565b6000610944826108e2565b61094e81856108ed565b935061095e8185602086016108fe565b61096781610928565b840191505092915050565b61097b81610783565b82525050565b6000606083016000830151848203600086015261099e8282610939565b91505060208301516109b36020860182610972565b5060408301516109c66040860182610972565b508091505092915050565b60006109dc826107b9565b9050919050565b6109ec816109d1565b82525050565b606082016000820151610a0860008501826109e3565b506020820151610a1b6020850182610972565b506040820151610a2e6040850182610972565b50505050565b60008115159050919050565b610a4981610a34565b82525050565b600060c0820190508181036000830152610a698187610981565b9050610a7860208301866109f2565b610a85608083018561088b565b610a9260a0830184610a40565b95945050505050565b610aa4816107d9565b82525050565b6000602082019050610abf6000830184610a9b565b92915050565b610ace816109d1565b82525050565b6000602082019050610ae96000830184610ac5565b92915050565b600082825260208201905092915050565b6000610b0b826108e2565b610b158185610aef565b9350610b258185602086016108fe565b610b2e81610928565b840191505092915050565b600060a082019050610b4e6000830188610a9b565b8181036020830152610b608187610b00565b9050610b6f604083018661088b565b610b7c606083018561088b565b610b89608083018461088b565b9695505050505050565b7f4e487b7100000000000000000000000000000000000000000000000000000000600052601160045260246000fd5b6000610bcd82610783565b9150610bd883610783565b9250828202610be681610783565b91508282048414831517610bfd57610bfc610b93565b5b5092915050565b6000610c0f82610783565b9150610c1a83610783565b9250828201905080821115610c3257610c31610b93565b5b92915050565b7f4e487b7100000000000000000000000000000000000000000000000000000000600052604160045260246000fd5b7f4e487b7100000000000000000000000000000000000000000000000000000000600052602260045260246000fd5b60006002820490506001821680610cae57607f821691505b602082108103610cc157610cc0610c67565b5b50919050565b60008190508160005260206000209050919050565b60006020601f8301049050919050565b600082821b905092915050565b600060088302610d297fffffffffffffffffffffffffffffffffffffffffffffffffffffffffffffffff82610cec565b610d338683610cec565b95508019841693508086168417925050509392505050565b6000819050919050565b6000610d70610d6b610d6684610783565b610d4b565b610783565b9050919050565b6000819050919050565b610d8a83610d55565b610d9e610d9682610d77565b848454610cf9565b825550505050565b600090565b610db3610da6565b610dbe818484610d81565b505050565b5b81811015610de257610dd7600082610dab565b600181019050610dc4565b5050565b601f821115610e2757610df881610cc7565b610e0184610cdc565b81016020851015610e10578190505b610e24610e1c85610cdc565b830182610dc3565b50505b505050565b600082821c905092915050565b6000610e4a60001984600802610e2c565b1980831691505092915050565b6000610e638383610e39565b9150826002028217905092915050565b610e7c826108e2565b67ffffffffffffffff811115610e9557610e94610c38565b5b610e9f8254610c96565b610eaa828285610de6565b600060209050601f831160018114610edd5760008415610ecb578287015190505b610ed58582610e57565b865550610f3d565b601f198416610eeb86610cc7565b60005b82811015610f1357848901518255600182019150602085019450602081019050610eee565b86831015610f305784890151610f2c601f891682610e39565b8355505b6001600288020188555050505b505050505050565b6000610f5082610783565b91507fffffffffffffffffffffffffffffffffffffffffffffffffffffffffffffffff8203610f8257610f81610b93565b5b600182019050919050565b82818337600083830152505050565b6000610fa88385610aef565b9350610fb5838584610f8d565b610fbe83610928565b840190509392505050565b6000608082019050610fde6000830188610a9b565b8181036020830152610ff1818688610f9c565b9050611000604083018561088b565b61100d606083018461088b565b969550505050505056fea26469706673582212202344df56146223d4b006e95be84e402d43a846a27f06695f215cae5c0ad85fa064736f6c63430008110033",
  "immutableReferences": {},
  "source": "contract Deal {\n\tstruct Product\n\t{\n\t\tstring name;\n\t\tuint quantity;\n\t\tuint price; // Price per single product.\n\t}\n\n\tstruct Shipment\n\t{\n\t\taddress payable courierAddr;\n\t\tuint price;\n\t\tuint date;\n\t}\n\n\tstruct Order\n\t{\n\t\tProduct product;\n\t\tShipment shipment;\n\t\tuint total;\n\t\tbool initialized;\n\t}\n\n\taddress public buyerAddr; // payable - Enable sending money to them.\n\taddress payable public sellerAddr; // payable - Enable sending money to them.\n\n\tmapping (uint => Order) public orders;\n\tuint public orderCount;\n\n\tevent OnOrderPlaced(address buyerAddr, string product, uint quantity, uint orderNumber);\n\n\tconstructor(address buyer) {\n\t\tsellerAddr = payable(msg.sender);\n\t\tbuyerAddr = buyer;\n\t\torderCount = 0;\n\t}\n\n\tfunction placeOrder(string calldata product, uint quantity, address courierAddr) public payable {\n\t\trequire(sellerAddr == msg.sender);\n\n\t\tuint total = 10 * quantity + 5;\n\n\t\torders[orderCount] = Order(\n\t\t\tProduct(product, quantity, 10),\n\t\t\tShipment(payable(courierAddr), 5, block.timestamp),\n\t\t\ttotal,\n\t\t\ttrue\n\t\t);\n\n\t\tuint id = orderCount;\n\t\torderCount++;\n\n\t\temit OnOrderPlaced(\n\t\t\tbuyerAddr,\n\t\t\tproduct,\n\t\t\tquantity,\n\t\t\tid\n\t\t);\n\t}\n\n\tfunction getOrder(uint number) view public returns(address buyer, string memory product, uint quantity, uint total, uint date) {\n\t\trequire(orders[number].initialized);\n\n\t\treturn (\n\t\t\tbuyerAddr,\n\t\t\torders[number].product.name,\n\t\t\torders[number].product.quantity,\n\t\t\torders[number].product.price,\n\t\t\torders[number].shipment.date\n\t\t);\n\t}\n}",
  "sourcePath": "/home/hubertas/Desktop/github contract/smart-contract/contracts/Deal.sol",
  "compiler": {
    "name": "solc",
    "version": "0.8.17+commit.8df45f5f.Emscripten.clang"
  },
  "schemaVersion": "3.4.11",
  "updatedAt": "2022-12-13T00:19:18.142Z",
  "networkType": "ethereum",
  "devdoc": {
    "kind": "dev",
    "methods": {},
    "version": 1
  },
  "userdoc": {
    "kind": "user",
    "methods": {},
    "version": 1
  }
}